:100000000C94FE000C9424010C9424010C94240103
:100010000C9424010C9424010C9424010C942401CC
:100020000C9424010C9424010C9424010C942401BC
:100030000C9424010C9424010C949A050C94240132
:100040000C9424010C9424010C9424010C9424019C
:100050000C9424010C9424010C9424010C9424018C
:100060000C9424010C9424010C9424010C9424017C
:100070000C9424010C9424010C9424010C9424016C
:100080000C9424010C9424010C9424010C9424015C
:100090000C9424010C9424010C9424010C9424014C
:1000A0000C9424010C9424010C9424010C9424013C
:1000B0000C9424010C9424010C9424010C9424012C
:1000C0000C9424010C9424010C9424010C9424011C
:1000D0000C9424010C9424010C9424010C9424010C
:1000E0000C9424010C9424010C9424010C942401FC
:1000F0000C9424010C9424010C9424010C942401EC
:100100000C9424010C9424010C9424010C942401DB
:100110000C9424010C9424010C9424010C943A06B0
:100120000C9455060C9424010C9424010C94240185
:100130000C9424010C9424010C9424010C942401AB
:100140000C9424010C9424010C9424010C94E005DB
:100150000C9424010C9424010C9424010C9424018B
:100160000C9424010C9424010C9424010C9424017B
:100170000C9424010C9424010C9424010C9424016B
:100180000C9424010C9424010C9424010C9424015B
:100190000C9424010C9424010C9424010C9424014B
:1001A0000C9424010C9424010C9424010C9424013B
:1001B0000C9424010C9424010C9424010C9424012B
:1001C0000C9424010C9424010C9424010C9424011B
:1001D0000C9424010C9424010C9424010C9424010B
:1001E0000C9424010C9424010C9424010C942401FB
:1001F0000C9424010C9424010C94240111241FBE9E
:10020000CFEFCDBFDFE3DEBF00E00CBF18BE19BEED
:100210001ABE1BBE10E2A0E0B0E2E4EEFCE000E09B
:100220000BBF02C007900D92A035B107D9F71BBED6
:1002300021E2A0E5B0E201C01D92A936B207E1F7C4
:100240000E9466050C9470060C9400008F9382E067
:10025000809350008091510081FFFCCF88ED809306
:10026000340081E08093400088ED8093340080E08A
:10027000809341008F910895E0E0F2E080E1818376
:1002800080E38093020283E0848381E080A380A7DF
:1002900011A298E091A782A382A795E4938380831B
:1002A0000895E0E4F8E088E391E086A397A388EC62
:1002B0008093800185E080830895A0E4B6E084E324
:1002C00014968C931497E0EAF6E086ED84838FEF22
:1002D00011968C938183089594E39093440696ED50
:1002E0009093A406611104C090E19093A60629C0E2
:1002F000613021F490E29093460623C0623021F4ED
:1003000090E1909346061DC0633021F492E09093F3
:10031000A60617C0643021F494E09093460611C0FD
:10032000653021F494E09093A6060BC0663021F46A
:1003300090E49093A60605C0673019F490E8909376
:10034000A60688231CF498E09093450686FF03C018
:1003500090E49093450685FF03C092E09093450694
:1003600084FF03C090E89093450683FF03C098E0A4
:100370009093A50682FF03C091E09093450681FF0C
:1003800003C090E29093A50680FF03C081E08093B4
:10039000A5060895E0E0F8E084E190E086A397A345
:1003A00086E0808383E08683089580E090E0FC010E
:1003B000E65AFE4D1082019688309105C1F70895E6
:1003C000809158219091592189309740BCF48091B7
:1003D000582190915921883C910594F08091662193
:1003E00090916721893097406CF4809166219091BB
:1003F0006721883C910544F080E008958CE60895DB
:1004000082E7089585E7089584E608950F931F9382
:10041000CF93DF9320915321222309F43EC0215032
:1004200030E02F5F3F4F80E090E067E070E040E811
:1004300050E0FC01DC01AA0FBB1FAA0FBB1FAD5A85
:10044000BF4DAC91AF3F29F1DC01AA0FBB1FAA0F32
:10045000BB1FAD5ABF4D1196AC91AF3FD1F0EE0F1F
:10046000FF1FEE0FFF1FED5AFF4DA081E1818B01B1
:100470000E1B1109E7FD1395F801E65AFE4DC081E8
:100480008A0102C015950795AA95E2F7D801AC2B11
:10049000A08301968217930761F6E2E6F1E23081CC
:1004A0008181E7E0F0E0E81BF10987FDF395E65A6A
:1004B000FE4D208180E890E002C0959587953A95A1
:1004C000E2F7822B8083DF91CF911F910F910895E6
:1004D000E0E4F9E084E699E186A397A387E08083CE
:1004E00082E086830895FC0120E030E08191D9010B
:1004F000A65ABE4D8C932F5F3F4F28303105B1F780
:10050000089540915321442311F1415050E04F5F31
:100510005F4F20E030E0F901EE0FFF1FEE0FFF1FED
:10052000ED5AFF4D908198130AC0F901EE0FFF1F9D
:10053000EE0FFF1FED5AFF4D9181961739F02F5F97
:100540003F4F2417350739F740E001C041E0842FC1
:100550000895E2E6F1E286E0808383E081830895F6
:1005600080E090E02FEFFC01EE0FFF1FEE0FFF1F6A
:10057000ED5AFF4D2083218312821382019680342D
:10058000910589F7E3E5F0E2108283E0818327E5B6
:1005900030E22283338391E0948385832BE530E23C
:1005A0002683378392E090878187E0935421F093EC
:1005B000552120935621309357218093532182E770
:1005C000809368210E94A90208950F931F93CF93EF
:1005D000DF93E0E0F8E0D0A1D770C0A1C695C77066
:1005E00008C0DF5FD83009F4D0E0CF5FC83009F42D
:1005F000C0E06C2F8D2F0E9481028111F2CFE2E6C4
:10060000F1E2D083C183DF91CF911F910F910895C3
:10061000CF93DF93853709F080C0809168218436BD
:1006200009F403C2E0915621F0915721818187306E
:1006300024F081E080935020F8C1618180816F5F58
:100640000E948102882321F082E080935020EDC136
:10065000E0915621F0915721908180916221981369
:100660002CC0818120916321082E000C990B0196EA
:10067000022E000C330B82179307F9F4809153215B
:10068000A82FB0E0C2E6D1E29881AA0FBB1FAA0F43
:10069000BB1FAD5ABF4D9C93998111969C931197A6
:1006A000A283B383A0935621B09357218F5F809389
:1006B000532185E780936821BDC1A0915421B09159
:1006C000552112962D913C91139780818C93E09146
:1006D0005421F0915521A0915621B09157211196A6
:1006E0008C918F5F8183E0915421F091552112828A
:1006F0001382A0915621B09157211296ED93FC934D
:100700001397E0935621F09357212093542130936F
:10071000552185E78093682188C1843609F080C01F
:1007200080916821853709F480C1E0915621F091CC
:1007300057218181181624F081E08093502075C1E3
:100740006181808161500E948102882321F082E0D2
:10075000809350206AC1E0915621F09157219081F9
:100760008091622198132CC0818120916321082EF1
:10077000000C990B0197022E000C330B8217930784
:10078000F9F480915321A82FB0E0C2E6D1E298811C
:10079000AA0FBB1FAA0FBB1FAD5ABF4D9C939981D7
:1007A00011969C931197A283B383A0935621B09383
:1007B00057218F5F8093532184E6809368213AC14B
:1007C000A0915421B091552112962D913C911397EF
:1007D00080818C93E0915421F0915521A091562174
:1007E000B091572111968C9181508183E0915421D1
:1007F000F091552112821382A0915621B091572178
:100800001296ED93FC931397E0935621F0935721A2
:10081000209354213093552184E68093682105C1AB
:10082000823709F080C0809168218C3609F4FDC0C0
:10083000E0915621F09157218081873024F081E0AA
:1008400080935020F2C0618180818F5F0E9481027D
:10085000882321F082E080935020E7C0E091562168
:10086000F0915721808120916221082E000C990B74
:100870000196022E000C330B8217930721F591810C
:100880008091632198131FC080915321A82FB0E05D
:10089000C2E6D1E29881AA0FBB1FAA0FBB1FAD5AB7
:1008A000BF4D9C93998111969C931197A283B3831A
:1008B000A0935621B09357218F5F8093532182E7F5
:1008C00080936821B7C0A0915421B0915521129610
:1008D0002D913C91139780818F5F8C93E0915421EF
:1008E000F0915521A0915621B091572111968C91EC
:1008F0008183E0915421F091552112821382A091BD
:100900005621B09157211296ED93FC931397E093E3
:100910005621F0935721209354213093552182E79B
:100920008093682182C08C3609F07FC08091682155
:10093000823709F47AC0E0915621F09157218081E5
:10094000181624F081E0809350206FC0618180816F
:1009500081500E948102882321F082E08093502000
:1009600064C0E0915621F09157218081209162214D
:10097000082E000C990B0197022E000C330B8217E6
:10098000930721F591818091632198131FC0809175
:100990005321A82FB0E0C2E6D1E29881AA0FBB1F75
:1009A000AA0FBB1FAD5ABF4D9C93998111969C9382
:1009B0001197A283B383A0935621B09357218F5FE1
:1009C000809353218CE68093682134C0A0915421F8
:1009D000B091552112962D913C91139780818150B1
:1009E0008C93E0915421F0915521A0915621B09122
:1009F000572111968C918183E0915421F0915521DA
:100A000012821382A0915621B09157211296ED9334
:100A1000FC931397E0935621F09357212093542190
:100A2000309355218CE6809368210E94D5010E9465
:100A3000060203C00E94E502F8CFDF91CF9108952E
:100A4000CF93DF93CDB7DEB72897CDBFDEBF9DEC48
:100A5000899F912D1124969596959695292F30E092
:100A6000220F331F220F331F220F331F2050304E0F
:100A7000990F492F440F440F940F891BE82FF0E082
:100A8000EE0FFF1FEE0FFF1FEE0FFF1FBF016050A5
:100A9000704EDE011196AE01475F5F4FF901819103
:100AA0009F01FB019191BF018295880F807E892B68
:100AB0008D93A417B50791F7CE0101960E9473029A
:100AC0002896CDBFDEBFDF91CF9108950E94260109
:100AD0000E94D5010E945D010E94CA010E943C0152
:100AE0000E9451010E94B0020E94680287E0809338
:100AF000A2007894C0E4D9E004C00E94E001809391
:100B00005120809150208823C1F31E82809153216F
:100B100083500E9420050E94E00180935120809123
:100B20005120882371F3109250200E94B0020E943D
:100B30006802E7CF1F920F920FB60F92112408B6EA
:100B40000F9218BE09B60F9219BE0BB60F921BBEBC
:100B50002F933F934F935F936F937F938F939F93C5
:100B6000AF93BF93EF93FF9360915220E091522097
:100B7000F0E0E65AFE4D80810E946C018091522087
:100B80008F5F8093522080915220883011F4109210
:100B90005220FF91EF91BF91AF919F918F917F91E3
:100BA0006F915F914F913F912F910F900BBE0F90DE
:100BB00009BE0F9008BE0F900FBE0F901F901895A2
:100BC0001F920F920FB60F92112408B60F9218BE03
:100BD00009B60F9219BE0BB60F921BBE2F933F930F
:100BE0004F935F936F937F938F939F93AF93BF9335
:100BF000EF93FF9380915120853721F480916821F4
:100C00008436C1F480915120843621F4809168218A
:100C1000853781F480915120823721F480916821B9
:100C20008C3641F4809151208C3649F480916821B2
:100C3000823729F0809151200E94080304C08091DE
:100C400068210E940803FF91EF91BF91AF919F919E
:100C50008F917F916F915F914F913F912F910F9065
:100C60000BBE0F9009BE0F9008BE0F900FBE0F90E5
:100C70001F9018951F920F920FB60F92112408B66D
:100C80000F9218BE8F939F9380912402909125021A
:100C900080935821909359219F918F910F9008BE76
:100CA0000F900FBE0F901F9018951F920F920FB6C6
:100CB0000F92112408B60F9218BE8F939F938091C4
:100CC0002C0290912D0280936621909367219F9131
:100CD0008F910F9008BE0F900FBE0F901F90189528
:040CE000F894FFCFB6
:100CE40007050505070000000101010101000000DE
:100CF40007010704070000000701070107000000BF
:100D040005050701010000000704070107000000B2
:100D140007040705070000000701010101000000A6
:100D2400070507050700000007050701010000008B
:00000001FF
