S01100004C45446D61747269782E73726563A9
S11300000C94FE000C9424010C9424010C942401FF
S11300100C9424010C9424010C9424010C942401C8
S11300200C9424010C9424010C9424010C942401B8
S11300300C9424010C9424010C9442040C94240187
S11300400C9424010C9424010C9424010C94240198
S11300500C9424010C9424010C9424010C94240188
S11300600C9424010C9424010C9424010C94240178
S11300700C9424010C9424010C9424010C94240168
S11300800C9424010C9424010C9424010C94240158
S11300900C9424010C9424010C9424010C94240148
S11300A00C9424010C9424010C9424010C94240138
S11300B00C9424010C9424010C9424010C94240128
S11300C00C9424010C9424010C9424010C94240118
S11300D00C9424010C9424010C9424010C94240108
S11300E00C9424010C9424010C9424010C942401F8
S11300F00C9424010C9424010C9424010C942401E8
S11301000C9424010C9424010C9424010C942401D7
S11301100C9424010C9424010C9424010C94E20406
S11301200C94FD040C9424010C9424010C942401DB
S11301300C9424010C9424010C9424010C942401A7
S11301400C9424010C9424010C9424010C94880430
S11301500C9424010C9424010C9424010C94240187
S11301600C9424010C9424010C9424010C94240177
S11301700C9424010C9424010C9424010C94240167
S11301800C9424010C9424010C9424010C94240157
S11301900C9424010C9424010C9424010C94240147
S11301A00C9424010C9424010C9424010C94240137
S11301B00C9424010C9424010C9424010C94240127
S11301C00C9424010C9424010C9424010C94240117
S11301D00C9424010C9424010C9424010C94240107
S11301E00C9424010C9424010C9424010C942401F7
S11301F00C9424010C9424010C94240111241FBE9A
S1130200CFEFCDBFDFE3DEBF00E00CBF18BE19BEE9
S11302101ABE1BBE10E2A0E0B0E2E4E3FAE000E0A4
S11302200BBF02C007900D92A031B107D9F71BBED6
S113023020E2A0E1B0E201C01D92AD34B207E1F7C3
S11302400E94A0020C9418050C9400008F9382E085
S1130250809350008091510081FFFCCF88ED809302
S1130260340081E08093400088ED8093340080E086
S1130270809341008F910895E0E0F2E080E1818372
S113028080E38093020283E0848381E080A380A7DB
S113029011A298E091A782A382A795E49383808317
S11302A00895E0E4F8E088E391E086A397A388EC5E
S11302B08093800185E080830895A0E4B6E084E320
S11302C014968C931497E0EAF6E086ED84838FEF1E
S11302D011968C938183089594E39093440696ED4C
S11302E09093A406611104C090E19093A60629C0DE
S11302F0613021F490E29093460623C0623021F4E9
S113030090E1909346061DC0633021F492E09093EF
S1130310A60617C0643021F494E09093460611C0F9
S1130320653021F494E09093A6060BC0663021F466
S113033090E49093A60605C0673019F490E8909372
S1130340A60688231CF498E09093450686FF03C014
S113035090E49093450685FF03C092E09093450690
S113036084FF03C090E89093450683FF03C098E0A0
S11303709093A50682FF03C091E09093450681FF08
S113038003C090E29093A50680FF03C081E08093B0
S1130390A5060895E0E0F8E084E190E086A397A341
S11303A086E0808383E08683089580E090E0FC010A
S11303B0EE5BFF4D1082019688309105C1F70895D8
S11303C0809140209091412089309740BCF48091E5
S11303D0402090914120883C910594F080914A20DE
S11303E090914B20893097406CF480914A209091F1
S11303F04B20883C910544F080E008958CE60895F4
S113040082E7089585E7089584E6089580E090E002
S11304102FEFFC01EE0FFF1FEE0FFF1FED5EFF4DF0
S1130420208321831282138201968A30910589F7F1
S1130430E3E1F0E2108283E0818327E130E222836A
S1130440338391E0948385832BE130E226833783E1
S113045092E0908781872FE130E222873387848777
S1130460858723E230E22687378794E0908B818B5F
S113047027E230E2228B338B95E0948B858BE093DB
S11304803C20F0933D2020933E2030933F2086E093
S113049080933B2082E780934C200895CF93DF9391
S11304A080E090E047E050E020E830E0DC01AA0F73
S11304B0BB1FAA0FBB1FAD5EBF4D6C916F3F01F117
S11304C0DC01AA0FBB1FAA0FBB1FAD5EBF4D119667
S11304D06C9111976F3FA1F0FD0160817181FA0168
S11304E0E71BF10977FDF395EE5BFF4DA081E90170
S11304F002C0D595C7956A95E2F7BE016A2B608361
S113050001968A30910591F6DF91CF910895E0E448
S1130510F9E084E699E186A397A387E0808382E0EB
S113052086830895FC0120E030E08191D901AE5B1F
S1130530BF4D8C932F5F3F4F28303105B1F708959D
S11305400E9426010E94D5010E945D010E94CA01F9
S11305500E943C010E9451010E9406020E948702EF
S113056087E08093A200789404C00E94E001809305
S11305701120809110208823C1F3809110208130B4
S113058029F488E090E20E94920208C08091102031
S1130590823021F480E090E20E9492020E94E00105
S11305A08093112080911120882319F31092102038
S11305B00E940602DECF482F80913B208823E9F079
S11305C020E030E0F901EE0FFF1FEE0FFF1FED5E9C
S11305D0FF4D908194130AC0F901EE0FFF1FEE0F37
S11305E0FF1FED5EFF4D9181961731F02F5F3F4F56
S11305F0281740F380E0089581E00895853709F0D5
S11306004DC080914C20843609F437C1E0913E20DE
S1130610F0913F208181873024F081E08093102085
S11306202CC1618180816F5F0E94DB02882321F0ED
S113063082E08093102021C1E0913C20F0913D2084
S113064022813381A0913E20B0913F208C91808300
S1130650E0913C20F0913D20A0913E20B0913F20BC
S113066011968C918F5F8183E0913C20F0913D2025
S113067012821382A0913E20B0913F201296ED93F6
S1130680FC931397E0933E20F0933F2020933C206B
S113069030933D2085E780934C20EFC0843609F0E9
S11306A04DC080914C20853709F4E7C0E0913E208D
S11306B0F0913F208181181624F081E0809310206E
S11306C0DCC06181808161500E94DB02882321F0BB
S11306D082E080931020D1C0E0913C20F0913D2035
S11306E022813381A0913E20B0913F208C91808360
S11306F0E0913C20F0913D20A0913E20B0913F201C
S113070011968C9181508183E0913C20F0913D20A1
S113071012821382A0913E20B0913F201296ED9355
S1130720FC931397E0933E20F0933F2020933C20CA
S113073030933D2084E680934C209FC0823709F09B
S11307404DC080914C208C3609F497C0E0913E2036
S1130750F0913F208081873024F081E08093102045
S11307608CC0618180818F5F0E94DB02882321F02D
S113077082E08093102081C0E0913C20F0913D20E4
S113078022813381A0913E20B0913F208C918F5FD4
S11307908083E0913C20F0913D20A0913E20B091D7
S11307A03F2011968C918183E0913C20F0913D2073
S11307B012821382A0913E20B0913F201296ED93B5
S11307C0FC931397E0933E20F0933F2020933C202A
S11307D030933D2082E780934C204FC08C3609F043
S11307E04CC080914C20823709F447C0E0913E20F0
S11307F0F0913F208081181624F081E0809310202E
S11308003CC06181808181500E94DB02882321F0F9
S113081082E08093102031C0E0913C20F0913D2093
S113082022813381A0913E20B0913F208C91815050
S11308308083E0913C20F0913D20A0913E20B09136
S11308403F2011968C918183E0913C20F0913D20D2
S113085012821382A0913E20B0913F201296ED9314
S1130860FC931397E0933E20F0933F2020933C2089
S113087030933D208CE680934C200E94D5010E9449
S11308804E0208951F920F920FB60F92112408B6CC
S11308900F9218BE09B60F9219BE0BB60F921BBE6B
S11308A02F933F934F935F936F937F938F939F9374
S11308B0AF93BF93EF93FF9360911220E0911220C6
S11308C0F0E0EE5BFF4D80810E946C01809112206C
S11308D08F5F8093122080911220883011F410923F
S11308E01220FF91EF91BF91AF919F918F917F91D2
S11308F06F915F914F913F912F910F900BBE0F908D
S113090009BE0F9008BE0F900FBE0F901F90189550
S11309101F920F920FB60F92112408B60F9218BEB1
S113092009B60F9219BE0BB60F921BBE2F933F93BD
S11309304F935F936F937F938F939F93AF93BF93E3
S1130940EF93FF9380911120853721F480914C20FF
S11309508436C1F480911120843621F480914C2096
S1130960853781F480911120823721F480914C20C5
S11309708C3641F4809111208C3649F480914C20BE
S1130980823729F0809111200E94FE0204C08091D8
S11309904C200E94FE02FF91EF91BF91AF919F9175
S11309A08F917F916F915F914F913F912F910F9014
S11309B00BBE0F9009BE0F9008BE0F900FBE0F9094
S11309C01F9018951F920F920FB60F92112408B61C
S11309D00F9218BE8F939F938091240290912502C9
S11309E080934020909341209F918F910F9008BE57
S11309F00F900FBE0F901F9018951F920F920FB675
S1130A000F92112408B60F9218BE8F939F93809172
S1130A102C0290912D0280934A2090934B209F9119
S1130A208F910F9008BE0F900FBE0F901F901895D6
S1070A30F894FFCF64
S1130A348181818181818181FF000000000000FFA8
S9030000FC
